:100000000C9473010C940F060C9440060C9471062A
:100010000C94A2060C94D3060C9404070C94350798
:100020000C9466070C94A4010C94A4010C94A401F4
:100030000C94A4010C94A4010C94A4010C94A401AC
:100040000C94A4010C94A4010C94A4010C94A4019C
:100050000C94A4010C94A4010C94A4010C94970793
:100060000C94A4010C94990B0C94890C0C94A4018D
:100070000C94A4010C94A4010C94A4010C94A4016C
:100080000C94A4010C94A4010C94A4010C94A4015C
:100090000C94CD0B0C94C80C0C94A4010C94B914C2
:1000A0000C94A4010C94A4010C94A4010C94A4013C
:1000B0000C94A4010C94A4010C94A4010C94A4012C
:1000C0000C94A4010C94A4010C94A4010C94010CB4
:1000D0000C94070D0C94A4010C94350C0C94460D53
:1000E0000C94A401E905B305BB05C705D405F505C6
:1000F0000206D408D708CA08CE080E09DB08DF08B4
:10010000E508E908ED08F308F708FB080E090109FE
:10011000050909090C94FE0A0C94170B0C940E099E
:100120000C9405090C94E5080C94DF080C94B213A8
:100130000C94D4050C94E9050C9402060C94DB088D
:100140000C9462130C94F7080C94CE080C94A70935
:100150000C94D4080C94BB050C9409090C94680CFD
:100160000C94ED080C94D7080C94CA080C947513E1
:100170000C945A130C94370B0C943C0F0C94EB0416
:100180000C94EE0A0C941B140C94E9080C940109CD
:100190000C94C7050C94EE030C94B3050C949310C7
:1001A0000C9485130C94060E0C94F5050C94841392
:1001B0000C94F3080C94420B0C94CA030C94FB08A7
:1001C0000000090A02080B0C0D07060304010000D9
:1001D000000000000000000000000000000000001F
:1001E00000000000000000000000000011100F00DF
:1001F00000000000000000000000000000000000FF
:10020000000000000000010210202008081020401B
:1002100010204080020102010804020101020408CA
:100220001020408080402010080402018004020158
:1002300080402010080402010804020101020408A1
:1002400010204080010204081020408005050505AB
:10025000070508080808020202020A0A080804043E
:10026000040401010101010101010303030303036C
:100270000303040707070C0C0C0C0C0C0C0C0202FB
:10028000020206060606060606060B0B0B0B0B0BF8
:100290000B0B000020002300260029002C002F005B
:1002A00032000001000003010601090100002200E4
:1002B000250028002B002E00310034000201000030
:1002C000050108010B0100002100240027002A007D
:1002D0002D003000330001010000040107010A0174
:1002E000EB04060E1B1411241FBECFEFD1E2DEBFBC
:1002F000CDBF00E00CBF13E0A0E0B2E0E4E0FFE21D
:1003000000E00BBF02C007900D92A633B107D9F7EA
:1003100027E0A6E3B3E001C01D92A133B207E1F7E5
:1003200012E0C6EED2E000E006C022970109FE010D
:100330000BBF0E947C17C03ED10780E00807A9F7D9
:100340000E94E10A0C94EA150C940000CF93DF930D
:10035000EC01DB01FA0112968D919C9113979C831D
:100360008B8389E193E09A83898314968D919C9184
:1003700015979E838D8316968D919C9117979887DC
:100380008F8318968D919C9119979A87898782817E
:1003900093819E878D8781E293E09C878B87848100
:1003A0008F878581888B8681898B87818A8B8085E1
:1003B0008B8B81858C8B82858D8B83858E8B84E165
:1003C000E9E2F2E0DE015B9601900D928A95E1F799
:1003D0008AE0EDE3F2E0DE019F9601900D928A95AE
:1003E000E1F788E0E7E4F2E0DE01D99601900D92B2
:1003F0008A95E1F7FE01EF5BFF4F87E592E091837D
:10040000808332968FE592E09183808332961182C9
:1004100010821882DF91CF910895CF93DF93EC0182
:100420002196CE010E941110CE010E94640F60EE51
:1004300072E0CE01DF91CF910C941A0ACF93DF9333
:10044000EC012B96CE010E944811CE01DF91CF9195
:100450000C944910EF92FF920F931F93CF93DF9369
:10046000CDB7DEB727970FB6F894DEBF0FBECDBF6E
:100470007B018C01055F1F4F40E060E0C8010E94D6
:10048000AA104AE0F7016481CE0101960E94A20AF7
:10049000BE016F5F7F4FC8010E94E509CE01019642
:1004A0000E941C0A6EEE72E0C8010E941A0A40E027
:1004B0006AE0C8010E94AA104AE0F7016381CE01F8
:1004C00001960E94A20ABE016F5F7F4FC8010E9481
:1004D000E509CE0101960E941C0A6EEE72E0C80189
:1004E0000E941A0A41E060E0C8010E94AA104AE096
:1004F000F7016281CE0101960E94A20ABE016F5FE0
:100500007F4FC8010E94E509CE0101960E941C0A96
:100510006EEE72E0C8010E941A0A41E06AE0C8016A
:100520000E94AA104AE0F7016181CE0101960E9463
:10053000A20ABE016F5F7F4FC8010E94E509CE018C
:1005400001960E941C0A6EEE72E0C8010E941A0A0F
:1005500042E060E0C8010E94AA104AE0F701608111
:10056000CE0101960E94A20ABE016F5F7F4FC801B3
:100570000E94E509CE0101960E941C0A6EEE72E00F
:10058000C8010E941A0A27960FB6F894DEBF0FBE64
:10059000CDBFDF91CF911F910F91FF90EF90089504
:1005A000EF92FF920F931F93CF93DF938C017B0108
:1005B000EC012196CE010E94640F40E050E060E023
:1005C00070E0CE010E947B0FF801EB5BFF4F808152
:1005D00091818130910569F08330910591F0892BEB
:1005E00011F5F701EE0FFF1FE00FF11F61AD72ADC6
:1005F00011C0F701EE0FFF1FE00FF11F638D748D27
:1006000009C0EE0CFF1CE00EF11EF701EF5BFF4F7F
:1006100060817181CE01DF91CF911F910F91FF9089
:10062000EF900C941A0ADF91CF911F910F91FF90D8
:10063000EF9008958B5B9F4FFC0180819181813009
:10064000910569F08330910591F0892BD1F46430E4
:100650007105ACF477FF15C063E070E012C06A303A
:1006600071056CF477FF0DC069E070E00AC062307C
:1006700071052CF477FF05C061E070E002C060E016
:1006800070E0CB010895CF93DF93EC016F89788DF3
:100690006F5F7F4F788F6F8B0E941A03988F8F8BBD
:1006A000BC01CE01DF91CF910C94D002CF93DF93A8
:1006B000EC016F89788D61507109788F6F8B0E9482
:1006C0001A03988F8F8BBC01CE01DF91CF910C94D0
:1006D000D002FC01EB5BFF4F71836083FC01108E45
:1006E000178A60E070E00C94D002FC01EB5BFF4FD6
:1006F000208131812115310501F5FC012789308DDB
:100700002130310571F01CF4232B41F00895223083
:10071000310569F02330310569F0089561E070E03A
:1007200022C0FC01E95BFF4F21E0208314C062E09E
:1007300070E019C063E070E016C023303105A9F401
:10074000FC012789308D2115310541F4E95BFF4F0C
:100750002EEF208321E0FC01208308952130310514
:1007600021F460E070E00C9469030895FC01DC0161
:10077000A95BBF4F8C911C9210820895FC01EB5B2A
:10078000FF4F20813181232B21F060E070E00C9439
:1007900069030895F8948CB180738093A9038091C4
:1007A000A903803321F48091AB03811109C08091AA
:1007B000A903803119F481E08093AA037894089505
:1007C0008091980390919903019790939903809356
:1007D00098031092AA031092AB03F0CFF8948CB157
:1007E00080738093A9038091A903803321F48091C1
:1007F000AA03811109C08091A903803219F481E014
:100800008093AB0378940895809198039091990315
:10081000019690939903809398031092AA031092E3
:10082000AB03F0CF60E0809120020E940F0960E0EE
:1008300080911E020E940F0960E080911C020E94BC
:100840000F0962E080911A020E940F0962E0809114
:1008500018020E940F0962E0809116020E940F099F
:1008600062E0809114020E940F0962E080911202FE
:100870000E940F0962E0809110020E940F0962E05D
:1008800080910E020E940F0962E080910C020E948A
:100890000F0962E080910A020C940F09EF92FF9217
:1008A0000F931F93CF93DF93CAE9D3E000E010E0EA
:1008B000802F0E949A08BC01882777FD8095982F89
:1008C0000E94B81620E030E040E751E40E94221672
:1008D0000E948A168881681711F0688311E00F5F03
:1008E0002196053029F7C5EFD2E08FE9E82E83E0A5
:1008F000F82E888122960E947E0921E0892B09F03A
:1009000020E0F7018081281711F0208311E0FFEF2C
:10091000EF1AFF0A83E0C530D80759F780911C020F
:100920000E947E0921E0892B09F020E02093A70393
:10093000812FDF91CF911F910F91FF90EF9008953C
:10094000EAE9F3E0A3E0B2E081918D9383E0EF392F
:10095000F807D1F70895EFE9F3E080E09191911164
:100960008160880F93E0E63AF907C1F780930802A7
:100970009091A603992319F081608093080208954D
:1009800080E00E94970843E050E06AEC73E080E06A
:100990000E949E0543E050E06EEE73E081E00E940D
:1009A0009E0540E855E260E070E08BE294E00E9432
:1009B000850D40E855E260E070E089E094E00E9437
:1009C000850D86E393E00E940D0286E393E00E948A
:1009D0001E020C94120422E030E040E150E069E095
:1009E00074E08AE893E00E94560F24E044E167E255
:1009F0008EE793E00E9420104EE753E06AE873E030
:100A000086E393E00C94A601CF93DF930E944E04FB
:100A1000811104C080919503882329F16AE973E06C
:100A200086E393E00E942A020E94A0040E94AB0485
:100A300010929503C2E0D2E069918BE294E00E94AB
:100A4000420B82E0CA30D807B9F763EF72E08BE25D
:100A500094E00E941A0A8091A503882321F086E37E
:100A600093E00E94BE038091A703882391F08091B8
:100A7000940381110EC081E08093940386E393E098
:100A80000E94750360E971E080E090E00E94040834
:100A900002C0109294038091980390919903209141
:100AA00096033091970382179307B4F497FF08C019
:100AB0008091000290910102909399038093980392
:100AC0008091980390919903909397038093960354
:100AD00086E393E00E9456038091980390919903D6
:100AE000209196033091970328173907BCF4209181
:100AF0000002309101022817390724F4109299035B
:100B00001092980380919803909199039093970382
:100B10008093960386E393E00E944303809136031B
:100B2000882349F086E393E00E94B603809309028C
:100B300081E080939503DF91CF910895883008F08C
:100B40006DC0E82FF0E0EE0FFF1FE455FC4F7183FE
:100B5000608390E0FC013197E730F10590F5EE58A5
:100B6000FF4F0C947617809169008C7F842B8093C3
:100B70006900E89A089580916900440F551F440F59
:100B8000551F837F842B80936900E99A0895809193
:100B9000690074E0440F551F7A95E1F78F7C842B30
:100BA00080936900EA9A08958091690066E0440F95
:100BB000551F6A95E1F78F73842B80936900EB9A38
:100BC000089580916A008C7F842B80936A00EC9A50
:100BD000089580916A00440F551F440F551F837F6D
:100BE000842B80936A00ED9A089580916A0024E036
:100BF000440F551F2A95E1F78F7C842B80936A0060
:100C0000EE9A089580916A0096E0440F551F9A95D8
:100C1000E1F78F73842B80936A00EF9A08951F92F7
:100C20000F920FB60F9211240BB60F922F933F9392
:100C30004F935F936F937F938F939F93AF93BF93E4
:100C4000EF93FF938091B0039091B103892B29F02A
:100C5000E091B003F091B1031995FF91EF91BF912D
:100C6000AF919F918F917F916F915F914F913F9144
:100C70002F910F900BBE0F900FBE0F901F901895E5
:100C80001F920F920FB60F9211240BB60F922F9353
:100C90003F934F935F936F937F938F939F93AF9304
:100CA000BF93EF93FF938091B2039091B303892B8D
:100CB00029F0E091B203F091B3031995FF91EF9100
:100CC000BF91AF919F918F917F916F915F914F9164
:100CD0003F912F910F900BBE0F900FBE0F901F9062
:100CE00018951F920F920FB60F9211240BB60F9208
:100CF0002F933F934F935F936F937F938F939F9324
:100D0000AF93BF93EF93FF938091B4039091B5039A
:100D1000892B29F0E091B403F091B5031995FF9167
:100D2000EF91BF91AF919F918F917F916F915F9163
:100D30004F913F912F910F900BBE0F900FBE0F90D0
:100D40001F9018951F920F920FB60F9211240BB699
:100D50000F922F933F934F935F936F937F938F9354
:100D60009F93AF93BF93EF93FF938091B6039091BE
:100D7000B703892B29F0E091B603F091B7031995D9
:100D8000FF91EF91BF91AF919F918F917F916F9163
:100D90005F914F913F912F910F900BBE0F900FBE1F
:100DA0000F901F9018951F920F920FB60F9211245B
:100DB0000BB60F922F933F934F935F936F937F9355
:100DC0008F939F93AF93BF93EF93FF938091AC0367
:100DD0009091AD03892B29F0E091AC03F091AD0324
:100DE0001995FF91EF91BF91AF919F918F917F9155
:100DF0006F915F914F913F912F910F900BBE0F908C
:100E00000FBE0F901F9018951F920F920FB60F9262
:100E100011240BB60F922F933F934F935F936F93D1
:100E20007F938F939F93AF93BF93EF93FF938091A3
:100E3000AE039091AF03892B29F0E091AE03F091BE
:100E4000AF031995FF91EF91BF91AF919F918F9152
:100E50007F916F915F914F913F912F910F900BBEBA
:100E60000F900FBE0F901F9018951F920F920FB604
:100E70000F9211240BB60F922F933F934F935F93D2
:100E80006F937F938F939F93AF93BF93EF93FF9352
:100E90008091B8039091B903892B29F0E091B803B0
:100EA000F091B9031995FF91EF91BF91AF919F9187
:100EB0008F917F916F915F914F913F912F910F9003
:100EC0000BBE0F900FBE0F901F9018951F920F92A0
:100ED0000FB60F9211240BB60F922F933F934F939F
:100EE0005F936F937F938F939F93AF93BF93EF9392
:100EF000FF938091BA039091BB03892B29F0E09175
:100F0000BA03F091BB031995FF91EF91BF91AF9197
:100F10009F918F917F916F915F914F913F912F9111
:100F20000F900BBE0F900FBE0F901F9018951F9241
:100F30000F920FB60F9211242F933F938F939F938D
:100F4000AF93BF938091BD039091BE03A091BF0367
:100F5000B091C0033091BC0323E0230F2D3720F460
:100F60000196A11DB11D05C026E8230F0296A11D03
:100F7000B11D2093BC038093BD039093BE03A09347
:100F8000BF03B093C0038091C1039091C203A091AD
:100F9000C303B091C4030196A11DB11D8093C10389
:100FA0009093C203A093C303B093C403BF91AF91C6
:100FB0009F918F913F912F910F900FBE0F901F9097
:100FC00018953FB7F8948091C1039091C203A09106
:100FD000C303B091C40326B5A89B05C02F3F19F0E9
:100FE0000196A11DB11D3FBF6627782F892F9A2F2B
:100FF000620F711D811D911D42E0660F771F881FD2
:10100000991F4A95D1F70895CF92DF92EF92FF9200
:10101000CF93DF936B017C010E94E107EB01C114C8
:10102000D104E104F10479F00E94E1076C1B7D0B0F
:10103000683E7340A0F381E0C81AD108E108F108C6
:10104000C851DC4FECCFDF91CF91FF90EF90DF9054
:10105000CF9008950197009739F0880F991F880F56
:10106000991F02970197F1F70895789484B58260EB
:1010700084BD84B5816084BD85B5826085BD85B53C
:10108000816085BDEEE6F0E0808181608083E1E8EB
:10109000F0E0108280818260808380818160808323
:1010A000E0E8F0E0808181608083E1EBF0E0808126
:1010B00084608083E0EBF0E0808181608083E1E9FF
:1010C000F0E0808182608083808181608083E0E9BC
:1010D000F0E0808181608083E1EAF0E080818260DD
:1010E0008083808181608083E0EAF0E0808181609C
:1010F0008083E1E2F1E08081826080838081816091
:101100008083E0E2F1E0808181608083EAE7F0E0C3
:10111000808184608083808182608083808181601F
:1011200080838081806880831092C10008958093BD
:1011300022020895863308F0865320917B00982F71
:101140009870277F922B90937B00877020912202CA
:1011500090E4299F90011124822B80937C00809140
:101160007A00806480937A0080917A0086FDFCCFBB
:10117000809178002091790090E0922B089590E082
:10118000FC013197E131F10508F048C0E758FF4F05
:101190000C947617809180008F7703C08091800037
:1011A0008F7D80938000089584B58F7702C084B5C9
:1011B0008F7D84BD08958091B0008F7703C08091AA
:1011C000B0008F7D8093B0000895809190008F775C
:1011D00007C0809190008F7D03C080919000877F31
:1011E0008093900008958091A0008F7707C0809130
:1011F000A0008F7D03C08091A000877F8093A00016
:101200000895809120018F7707C0809120018F7D04
:1012100003C080912001877F809320010895CF93A0
:10122000DF9390E0FC01EA5FFD4F2491FC01E45B59
:10123000FD4F8491882349F190E0880F991FFC01AC
:10124000EA53FD4FA591B49184559D4FFC01C59182
:10125000D4919FB7611108C0F8948C912095822396
:101260008C93888182230AC0623051F4F8948C9167
:10127000322F309583238C938881822B888304C0FE
:10128000F8948C91822B8C939FBFDF91CF9108951E
:101290000F931F93CF93DF931F92CDB7DEB7282F05
:1012A00030E0F901E054FE4F8491F901EA5FFD4F0F
:1012B0001491F901E45BFD4F04910023C9F08823E8
:1012C00021F069830E94BF086981E02FF0E0EE0FF2
:1012D000FF1FE455FD4FA591B4919FB7F8948C91F1
:1012E000611103C01095812301C0812B8C939FBF96
:1012F0000F90DF91CF911F910F910895CF93DF93BE
:10130000282F30E0F901E054FE4F8491F901EA5FA3
:10131000FD4FD491F901E45BFD4FC491CC2391F0D2
:1013200081110E94BF08EC2FF0E0EE0FFF1FEE5678
:10133000FD4FA591B4912C912D2381E090E021F4F3
:1013400080E002C080E090E0DF91CF910895CF92DD
:10135000DF92EF92FF920F931F93CF93DF936C0175
:101360007A01EB01E60EF71E00E010E0CE15DF0576
:1013700061F06991D601ED91FC910190F081E02D31
:10138000C6011995080F191FF1CFC801DF91CF9140
:101390001F910F91FF90EF90DF90CF90089561150E
:1013A000710581F0DB010D900020E9F7AD0141509E
:1013B0005109461B570BDC01ED91FC910280F38132
:1013C000E02D199480E090E00895AF92BF92CF9203
:1013D000DF92EF92FF920F931F93CF93DF937C01E5
:1013E0006B01C0E0D0E000E010E0D60114968D91D2
:1013F0009C911597C817D90788F4D701ED91FC91F6
:10140000A080B180BE01C6010E94D00A682FC7012A
:10141000F5011995080F191F2196E7CFC801DF9133
:10142000CF911F910F91FF90EF90DF90CF90BF90E1
:10143000AF9008950C94CF09FC01808191810C94A8
:10144000CB12CF93DF93EC0188819981009711F043
:101450000E94CB12198218821D821C821B821A8262
:10146000DF91CF9108950F931F93CF93DF93EC01FA
:101470008B016F5F7F4F888199810E944A1100978D
:1014800031F0998388831B830A8381E001C080E067
:10149000DF91CF911F910F910895CF93DF93EC01CE
:1014A00088819981892B29F08A819B8186179707EA
:1014B00060F4CE010E94330A882341F08C819D8123
:1014C000892B19F4E881F981108281E0DF91CF91B5
:1014D0000895EF92FF920F931F93CF93DF93EC0148
:1014E0007B018A01BA010E944D0A811104C0CE011C
:1014F0000E94210A07C01D830C83B701888199814E
:101500000E94F615CE01DF91CF911F910F91FF90B0
:10151000EF900895CF93DF93EC016115710561F0B1
:10152000FB0101900020E9F7AF0141505109461B32
:10153000570B0E94690A02C00E94210ACE01DF9166
:10154000CF9108950F931F93CF93DF93CDB7DEB75D
:1015500029970FB6F894DEBF0FBECDBF8C01862F42
:10156000F80111821082138212821582148216826F
:1015700050E0BE016F5F7F4F90E00E94FD15BE01FD
:101580006F5F7F4FC8010E948A0A29960FB6F894B0
:10159000DEBF0FBECDBFDF91CF911F910F91089598
:1015A000FC01248135816217730748F480819181A1
:1015B000009729F0FC01E60FF71F8081089580E075
:1015C00008950E9435080E94C004C8E6DCE00E942D
:1015D00004052097E1F30E94680CF9CFFC012485F3
:1015E0003585F901E05CFF4F808191813296208141
:1015F0003181821B930B8F7399270895FC01848599
:101600009585FC01E05CFF4F40815181329620813D
:1016100031814217530741F00190F081E02DE80F2E
:10162000F91F808190E008958FEF9FEF0895FC01EE
:1016300084859585FC01E05CFF4F408151813296A5
:10164000208131814217530779F0A081B181A80F21
:10165000B91F8C91208131812F5F3F4F2F7333272A
:101660003183208390E008958FEF9FEF0895FC0170
:1016700081A1882329F0A489B5898C9186FFFBCFAD
:1016800011A20895CF93DF93FC0126853785D901F8
:10169000A05CBF4F8D919C91119701968F739927F4
:1016A000E901CE5BDF4F4881598184179507D9F353
:1016B0000D90BC91A02DA20FB31F6C93A685B7858A
:1016C000A05CBF4F11969C938E93A689B7892C91ED
:1016D00081E090E0078C02C0880F991F0A94E2F71E
:1016E000282B2C9381E081A30488F589E02D80814B
:1016F0008064808381E090E0DF91CF910895FB01C9
:10170000E05CFF4F208131812F5F3F4F2F733327E4
:10171000DB01AE5BBF4F4D915C912417350739F06B
:10172000A081B181A60FB71F8C93318320830895C8
:1017300008951F920F920FB60F9211240BB60F92BD
:101740002F933F934F935F936F937F938F939F93C9
:10175000AF93BF93EF93FF938091C00082FD07C0CA
:101760008091C60069E276E00E947F0B02C0809102
:10177000C600FF91EF91BF91AF919F918F917F91A3
:101780006F915F914F913F912F910F900BBE0F90F2
:101790000FBE0F901F90189508951F920F920FB6CD
:1017A0000F9211240BB60F922F933F934F935F9399
:1017B0006F937F938F939F93AF93BF93EF93FF9319
:1017C0008091C80082FD07C08091CE0061EA75E07B
:1017D0000E947F0B02C08091CE00FF91EF91BF91DC
:1017E000AF919F918F917F916F915F914F913F91B9
:1017F0002F910F900BBE0F900FBE0F901F9018955A
:1018000008951F920F920FB60F9211240BB60F92EC
:101810002F933F934F935F936F937F938F939F93F8
:10182000AF93BF93EF93FF938091D00082FD07C0E9
:101830008091D60069E175E00E947F0B02C0809123
:10184000D600FF91EF91BF91AF919F918F917F91C2
:101850006F915F914F913F912F910F900BBE0F9021
:101860000FBE0F901F90189508951F920F920FB6FC
:101870000F9211240BB60F922F933F934F935F93C8
:101880006F937F938F939F93AF93BF93EF93FF9348
:101890008091300182FD07C08091360161E974E0DA
:1018A0000E947F0B02C080913601FF91EF91BF91A2
:1018B000AF919F918F917F916F915F914F913F91E8
:1018C0002F910F900BBE0F900FBE0F901F90189589
:1018D0008BE294E00E94EE0A892B11F00E94980B93
:1018E00089E094E00E94EE0A892B11F00E94CC0B53
:1018F00087EE93E00E94EE0A892B11F00E94000C03
:1019000085EC93E00E94EE0A892B11F00C94340CC4
:1019100008951F920F920FB60F9211240BB60F92DB
:101920002F933F938F939F93EF93FF9320912506DF
:1019300030912606809127069091280628173907AE
:1019400031F48091C1008F7D8093C10014C0E0917B
:101950002706F0912806EB51FA4F20818091270647
:101960009091280601968F7399279093280680936B
:1019700027062093C600FF91EF919F918F913F9191
:101980002F910F900BBE0F900FBE0F901F901895C8
:101990001F920F920FB60F9211240BB60F922F9336
:1019A0003F938F939F93EF93FF9320919D053091E9
:1019B0009E0580919F059091A0052817390731F465
:1019C0008091C9008F7D8093C90014C0E0919F056C
:1019D000F091A005E35AFA4F208180919F059091E4
:1019E000A00501968F7399279093A00580939F057A
:1019F0002093CE00FF91EF919F918F913F912F9176
:101A00000F900BBE0F900FBE0F901F9018951F9256
:101A10000F920FB60F9211240BB60F922F933F9394
:101A20008F939F93EF93FF932091150530911605A7
:101A300080911705909118052817390731F4809186
:101A4000D1008F7D8093D10014C0E0911705F091F3
:101A50001805EB52FB4F20818091170590911805D6
:101A600001968F73992790931805809317052093FB
:101A7000D600FF91EF919F918F913F912F910F9001
:101A80000BBE0F900FBE0F901F9018951F920F92D4
:101A90000FB60F9211240BB60F922F933F938F9393
:101AA0009F93EF93FF9320918D0430918E0480914A
:101AB0008F04909190042817390731F480913101F7
:101AC0008F7D8093310114C0E0918F04F0919004D8
:101AD000E35BFB4F208180918F04909190040196ED
:101AE0008F7399279093900480938F0420933601ED
:101AF000FF91EF919F918F913F912F910F900BBE8E
:101B00000F900FBE0F901F901895CF92DF92EF921B
:101B1000FF92CF93DF93EC016A017B01411581EEC7
:101B2000580761057105F9F0EC89FD8981E090E0C5
:101B300008A002C0880F991F0A94E2F7808360E032
:101B400079E08DE390E0A70196010E94541721509F
:101B50003109410951095695479537952795211522
:101B600080E1380798F0EC89FD89108260E874E81C
:101B70008EE190E0A70196010E945417215031098F
:101B8000410951095695479537952795E889F9896F
:101B90003083EA89FB89208319A2EE89FF8940817D
:101BA00081E090E09C010C8C02C0220F331F0A944C
:101BB000E2F7422B4083EE89FF8940819C010D8C26
:101BC00002C0220F331F0A94E2F7422B4083EE89B2
:101BD000FF8940819C010E8C02C0220F331F0A94A2
:101BE000E2F7422B4083EE89FF8920810F8C02C0EF
:101BF000880F991F0A94E2F7809582238083DF91F2
:101C0000CF91FF90EF90DF90CF900895CF931092F7
:101C10002E0410922D0488EE93E0A0E0B0E08093B3
:101C20002F0490933004A0933104B093320429E040
:101C300033E030932C0420932B0449E256E0509378
:101C400038044093370445EE55E050933A044093EE
:101C5000390445EC50E050933C0440933B0444EC81
:101C600050E050933E0440933D0440EC50E05093CC
:101C7000400440933F0441EC50E0509342044093B1
:101C8000410442EC50E0509344044093430446EC3A
:101C900050E05093460440934504C4E0C093470489
:101CA000F3E0F0934804E7E0E093490475E07093B3
:101CB0004A0461E060934B0410920C0410920B04F0
:101CC00080930D0490930E04A0930F04B09310041E
:101CD00030930A042093090441EA55E05093160416
:101CE000409315044DE555E05093180440931704B4
:101CF0004DEC50E050931A04409319044CEC50E022
:101D000050931C0440931B0448EC50E050931E0475
:101D100040931D0449EC50E05093200440931F046D
:101D20004AEC50E050932204409321044EEC50E0E2
:101D30005093240440932304C0932504F093260475
:101D4000E093270470932804609329041092EA0317
:101D50001092E9038093EB039093EC03A093ED03BF
:101D6000B093EE033093E8032093E70349E155E095
:101D70005093F4034093F30345ED54E05093F6037E
:101D80004093F50345ED50E05093F8034093F7037B
:101D900044ED50E05093FA034093F90340ED50E0D6
:101DA0005093FC034093FB0341ED50E05093FE033E
:101DB0004093FD0342ED50E0509300044093FF0335
:101DC00046ED50E05093020440930104C093030495
:101DD000F0930404E09305047093060460930704F1
:101DE0001092C8031092C7038093C9039093CA034B
:101DF000A093CB03B093CC033093C6032093C503C9
:101E000081E994E09093D2038093D1038DE494E030
:101E10009093D4038093D30385E391E09093D6030A
:101E20008093D50384E391E09093D8038093D70304
:101E300080E391E09093DA038093D90381E391E00A
:101E40009093DC038093DB0382E391E09093DE03C5
:101E50008093DD0386E391E09093E0038093DF03BA
:101E6000C093E103F093E203E093E3037093E40390
:101E70006093E503CF910895DC0114968D919C91B8
:101E80001597DC01ED91FC910190F081E02D199501
:101E90006AE070E080E090E00E9404080895DC01B0
:101EA000ED91FC910190F081E02D1994FC011382D9
:101EB000128289E193E091838083758364835783E1
:101EC0004683318720870895CF93DF93EC016EEF2F
:101ED00070E08C819D810E944F0F61E070E08C81E9
:101EE0009D810E944F0F6AE070E080E090E0DF91FA
:101EF000CF910C9404080F931F93CF93DF938C0121
:101F0000FC018681978180319105B9F461307105BA
:101F100049F16230710521F4EA01C05CDF4F23C052
:101F20006330710519F4EA0160961DC064307105D3
:101F3000D1F4EA01C05BDF4F16C04497A1F46130D1
:101F4000710581F06230710539F36330710519F460
:101F5000EA01649608C06430710529F4EA01CC5A9C
:101F6000DF4F01C0EA016EEF70E0F80184819581D6
:101F70000E944F0FBE0160587F4FF8018481958108
:101F80000E944F0F6AE070E080E090E0DF91CF9117
:101F90001F910F910C940408CF93DF93EC016EEF27
:101FA00070E08C819D810E944F0F6CE070E08C810D
:101FB0009D810E944F0F6AE070E080E090E0DF9129
:101FC000CF910C9404080F931F93CF93DF938C0150
:101FD000EB016E39710534F4603871052CF4C0E8FA
:101FE000D0E002C0CDE9D0E06CE770E0F801848178
:101FF00095810E944F0F64E670E080E090E00E94BF
:102000000408BE01F801848195810E944F0F64E6A7
:1020100070E080E090E0DF91CF911F910F910C94E0
:102020000408CF93DF93EC010E94CC0FCE010E94F5
:10203000640F6DE970E0CE01DF91CF910C94E30F56
:10204000FC011382128281E293E091838083648396
:1020500041872287138608951F93CF93DF93EC0166
:10206000162F6C818DE696E00E94FB13E0916D06C1
:10207000F0916E066B85612B0190F081E02D8DE66D
:1020800096E019958DE696E0DF91CF911F910C9423
:10209000181428E0FC01238760E00C942C101F9397
:1020A000CF93DF93EC01162F64600E942C1081E027
:1020B00090E00E942A08612F6B7FCE010E942C10B5
:1020C00082E390E0DF91CF911F910C942A081F9337
:1020D000CF93DF93EC01162F0E942C10612FCE01BD
:1020E000DF91CF911F910C944F10EF92FF921F93AD
:1020F000CF93DF931F92CDB7DEB77C01162F607FA1
:10210000642B49830E94671080E1189FB00111245D
:102110004981642BC7010F90DF91CF911F91FF90F0
:10212000EF900C94671041E00E94751081E090E000
:10213000089540E00C94751061E00E94991080EDC4
:1021400097E00C942A0862E00E94991080ED97E0D5
:102150000C942A08CF93DF93CDB7DEB728970FB63C
:10216000F894DEBF0FBECDBF28E0EFE4F2E0DE0161
:10217000119601900D922A95E1F7FC015085E52F0B
:10218000F0E0242F30E02E173F0714F04FEF450FFB
:10219000FE013196E40FF11DE40FF11D2081260FA1
:1021A0002068622F28960FB6F894DEBF0FBECDBF11
:1021B000DF91CF910C949910FC016681262F246049
:1021C00026836C600C949910CF93DF93EC0142301E
:1021D00018F08D8188608D834887222329F0413053
:1021E00019F48D8184608D8362E370E080E090E07B
:1021F0000E9404086B85CE010E942C1068EE73E0EB
:1022000080E090E00E94040860E3CE010E94671025
:1022100084E991E10E942A0860E3CE010E946710E0
:1022200084E991E10E942A0860E3CE010E946710D0
:1022300086E990E00E942A0860E2CE010E946710C1
:102240006D816062CE010E94991084E08E83CE0180
:102250000E94DC10CE010E949C1082E08F8366E019
:10226000CE010E949910CE01DF91CF910C94A31062
:10227000CF93DF93EC018DE696E00E94F1131D826F
:1022800020E04A856985CE01DF91CF910C94E4105E
:102290000C9438116F927F928F929F92AF92BF925F
:1022A000CF92DF92EF92FF920F931F93CF93DF9322
:1022B000EC01CB01209781F4DF91CF911F910F9119
:1022C000FF90EF90DF90CF90BF90AF909F908F9056
:1022D0007F906F900C943312FE01E60FF71F9E0162
:1022E00022503109E217F30708F4ACC0D9010D916F
:1022F0001C91119706171707B8F00530110508F45F
:102300009FC0A801445051094617570708F498C0C8
:1023100002501109061B170B019311936D937C93C7
:10232000CF010E94CB128CC05B01A01AB10A4E01F2
:10233000800E911EA0912F07B0913007612C712C57
:1023400060E070E0109709F449C0A815B905C9F517
:10235000ED90FC901197670142E0C40ED11CCA14A5
:10236000DB0478F147018A189B08640142E0C40E3F
:10237000D11C1296BC9012971396AC91B5E0CB1677
:10238000D10440F0B282A38391828082D9018D93DF
:102390009C9309C00E5F1F4F0E0D1F1DF901118385
:1023A0000083EB2DFA2F6115710531F0DB011396D7
:1023B000FC93EE93129744C0F0933007E0932F07FD
:1023C0003FC06D917C9111976616770608F43B012A
:1023D000BD0112960D90BC91A02DB4CF60912D0738
:1023E00070912E0768157905E9F468167906D0F41E
:1023F00040912302509124024115510541F44DB7FB
:102400005EB76091270270912802461B570BE417B4
:10241000F507C0F4F0932E07E0932D07F90191839F
:1024200080830EC00E9433127C01009759F0A801EE
:10243000BE010E94ED15CE010E94CB12C70104C05F
:10244000CE0102C080E090E0DF91CF911F910F910B
:10245000FF90EF90DF90CF90BF90AF909F908F90C4
:102460007F906F900895CF93DF938230910510F4A1
:1024700082E090E0E0912F07F091300720E030E01B
:10248000A0E0B0E0309739F14081518148175907F9
:10249000B8F04817590771F482819381109729F099
:1024A00013969C938E9312972CC090933007809331
:1024B0002F0727C02115310531F04217530718F0B7
:1024C000A901DB0101C0EF019A01BD01DF0102801A
:1024D000F381E02DD7CF21153105F9F0281B390BF9
:1024E0002430310580F48A819B816115710521F0CA
:1024F000FB019383828304C09093300780932F075E
:10250000FE01329644C0FE01E20FF31F81939193C6
:1025100022503109398328833AC020912D07309108
:102520002E07232B41F4209125023091260230936F
:102530002E0720932D07209123023091240221158C
:10254000310541F42DB73EB7409127025091280242
:10255000241B350BE0912D07F0912E07E217F307AE
:10256000A0F42E1B3F0B2817390778F0AC014E5F03
:102570005F4F2417350748F04E0F5F1F50932E070B
:1025800040932D078193919302C0E0E0F0E0CF01EA
:10259000DF91CF910895CF93DF93009709F487C01F
:1025A000FC01329713821282C0912F07D09130071D
:1025B000209781F420813181280F391F80912D07C8
:1025C00090912E078217930779F5F0932E07E093E9
:1025D0002D076DC0DE0120E030E0AE17BF0750F4DC
:1025E00012964D915C9113979D014115510509F18A
:1025F000DA01F3CFB383A28340815181840F951F09
:102600008A179B0771F48D919C911197840F951FE8
:1026100002969183808312968D919C911397938358
:1026200082832115310529F4F0933007E0932F07B9
:102630003EC0D9011396FC93EE9312974D915D9194
:10264000A40FB51FEA17FB0779F480819181840FED
:10265000951F0296D90111969C938E938281938146
:1026600013969C938E931297E0E0F0E08A819B8111
:10267000009719F0FE01EC01F9CFCE0102962881F6
:102680003981820F931F20912D0730912E07281733
:10269000390769F4309729F41092300710922F0708
:1026A00002C013821282D0932E07C0932D07DF91B0
:1026B000CF91089580919D0690E020919E06821B07
:1026C0009109089520919E0680919D06281750F447
:1026D000E22FF0E0E156F94F808190E02F5F2093E8
:1026E0009E0608958FEF9FEF0895E0919E068091DA
:1026F0009D06E81730F4F0E0E156F94F808190E054
:1027000008958FEF9FEF08950895CF92DF92EF9293
:10271000FF920F931F93CF93DF937C01CB018A012C
:1027200020917906222389F0EB016B01C40ED51E9E
:10273000CC15DD0569F06991D701ED91FC9101900F
:10274000F081E02DC7011995F3CF642F0E949014FA
:10275000C801DF91CF911F910F91FF90EF90DF9013
:10276000CF900895CF93DF931F92CDB7DEB76983E3
:10277000209179062223D1F020917A06203240F070
:1027800021E030E0FC013383228380E090E015C03B
:1027900080917B06E82FF0E0E458F94F998190830F
:1027A0008F5F80937B0680937A0605C061E0CE013F
:1027B00001960E94901481E090E00F90DF91CF91FC
:1027C0000895FC011382128248EE53E060E070E04D
:1027D000448355836683778389E293E09183808382
:1027E000089510929E0610929D0610927B061092FC
:1027F0007A060C941F1481E08093790660939C06FE
:1028000010927B0610927A0608950F93062F21E00E
:1028100040917A066CE776E080919C060E943D1418
:1028200010927B0610927A06109279060F91089505
:1028300061E00C9405148DE696E00C94E11310927F
:102840002C0781E080932A071092290761E084E138
:102850000E94480961E085E10E944809E9EBF0E047
:1028600080818E7F808380818D7F808388E48093C8
:10287000B80085E48093BC0008950F93413208F0BE
:1028800046C090912C079111FCCF92E090932C07B9
:1028900000932A079FEF9093BF061092040740937E
:1028A0000307FB0165E077E0DB019A2F961B941785
:1028B00018F491919D93F9CF10922B0790912B07CB
:1028C000880F892B80932B0780912907813041F451
:1028D0001092290780912B078093BB0085EC01C0E3
:1028E00085EE8093BC00222321F080912C0782305A
:1028F000E1F38091BF068F3F61F08091BF06803287
:1029000051F08091BF06803341F483E007C081E03D
:1029100005C080E003C082E001C084E00F9108950B
:10292000613298F420912C07243089F46093E106F9
:10293000FC0183EE96E0DC012A2F281B261718F4F1
:1029400021912D93F9CF80E0089581E0089582E0F0
:10295000089585ED8093BC008091BC0084FDFCCF80
:1029600010922C07089585EC8093BC0010922C07E0
:1029700008951F920F920FB60F9211240BB60F926B
:102980002F933F934F935F936F937F938F939F9377
:10299000AF93BF93EF93FF938091B900887F803608
:1029A00009F49CC068F5883209F45BC090F480316A
:1029B00009F454C038F4882309F4F5C0883009F4C8
:1029C0004DC0F5C0883109F44CC0803209F45DC0B7
:1029D000EEC0803409F468C048F4803309F455C06F
:1029E000883309F0E4C08093BF06A8C0803509F49D
:1029F0004FC0883509F45DC0883409F0D8C0D5C00F
:102A0000883909F4C6C0A8F4883709F467C038F4D7
:102A1000883609F463C0803709F460C0C8C08838BC
:102A200009F4B7C0803909F45FC0803809F0BFC02D
:102A30005BC0803B09F485C038F4803A09F466C075
:102A4000883A09F47EC0B3C0803C09F4A6C0883C33
:102A500009F4A3C0883B09F489C0A9C080912B0761
:102A600010C09091040780910307981770F5E091CA
:102A7000040781E08E0F80930407F0E0EB5FF84FCE
:102A800080818093BB0085EC85C08093BF068DC09C
:102A9000E091040781E08E0F809304078091BB00D2
:102AA000F0E0EB5FF84F808390910407809103077B
:102AB0006DC0E091040781E08E0F80930407809140
:102AC000BB00F0E0EB5FF84F808380912A07811113
:102AD0006CC081E08093290784EA60C083E0809322
:102AE0002C071092C006CFCF8091C006803208F02C
:102AF00050C0E091C00681E08E0F8093C0068091A7
:102B0000BB00F0E0EF53F94F8083BDCF8091C0064A
:102B1000803230F4E091C006F0E0EF53F94F1082BC
:102B20000E94A9146091C00670E0E0912507F09121
:102B3000260781EC96E019951092C0060E94B31406
:102B400036C084E080932C071092E2061092E106D2
:102B5000E0912707F091280719958091E1068111EE
:102B600005C081E08093E1061092E306E091E20661
:102B700081E08E0F8093E206F0E0ED51F94F808105
:102B80008093BB009091E2068091E106981708F4CB
:102B90007ACF85E88093BC000AC085EC8093BC00A6
:102BA00010922C0704C01092BF060E94A914FF9136
:102BB000EF91BF91AF919F918F917F916F915F91B5
:102BC0004F913F912F910F900BBE0F900FBE0F9022
:102BD0001F901895F8940C948017FB01DC0102C03B
:102BE00001900D9241505040D8F70895FB01DC014F
:102BF00001900D920020E1F708954532510520F42F
:102C0000423010F00C940816FB011082CB0108959D
:102C1000BB27FB015527AA27880F991FAA1FA417B6
:102C200010F0A41B83955051B9F7A05DAA3308F0AA
:102C3000A95DA193009779F7B111B1931192CB01DE
:102C40000C9444170CD0E6C0DED040F0D5D030F064
:102C500021F45F3F19F0C7C0511110C1CAC0EBD0B9
:102C600098F39923C9F35523B1F3951B550BBB2753
:102C7000AA2762177307840738F09F5F5F4F220F00
:102C8000331F441FAA1FA9F333D00E2E3AF0E0E8F9
:102C900030D091505040E695001CCAF729D0FE2F45
:102CA00027D0660F771F881FBB1F261737074807D7
:102CB000AB07B0E809F0BB0B802DBF01FF2793588D
:102CC0005F4F2AF09E3F510568F08DC0D7C05F3F2F
:102CD000ECF3983EDCF3869577956795B795F79575
:102CE0009F5FC9F7880F911D9695879597F908956D
:102CF000E1E0660F771F881FBB1F62177307840709
:102D0000BA0720F0621B730B840BBA0BEE1F88F717
:102D1000E095089598D088F09F5790F0B92F9927A3
:102D2000B751A0F0D1F0660F771F881F991F1AF0D6
:102D3000BA95C9F712C0B13081F09FD0B1E00895C3
:102D40009CC0672F782F8827B85F39F0B93FCCF344
:102D5000869577956795B395D9F73EF490958095CC
:102D6000709561957F4F8F4F9F4F0895E89409C0EC
:102D700097FB3EF490958095709561957F4F8F4FAE
:102D80009F4F9923A9F0F92F96E9BB279395F695C4
:102D9000879577956795B795F111F8CFFAF4BB0F42
:102DA00011F460FF1BC06F5F7F4F8F4F9F4F16C0A6
:102DB000882311F096E911C0772321F09EE8872F30
:102DC000762F05C0662371F096E8862F70E060E0EC
:102DD0002AF09A95660F771F881FDAF7880F969565
:102DE000879597F9089597F99F6780E870E060E00C
:102DF00008959FEF80EC089500240A941616170694
:102E000018060906089500240A94121613061406DB
:102E100005060895092E0394000C11F4882352F03E
:102E2000BB0F40F4BF2B11F460FF04C06F5F7F4FF6
:102E30008F4F9F4F089557FD9058440F551F59F0DD
:102E40005F3F71F04795880F97FB991F61F09F3F97
:102E500079F087950895121613061406551FF2CFC0
:102E60004695F1DF08C0161617061806991FF1CF10
:102E700086957105610508940895E894BB27662737
:102E80007727CB0197F90895DC01FC01672F719139
:102E90007723E1F7329704C07C916D937083629140
:102EA000AE17BF07C8F30895A1E21A2EAA1BBB1BD9
:102EB000FD010DC0AA1FBB1FEE1FFF1FA217B30706
:102EC000E407F50720F0A21BB30BE40BF50B661F1C
:102ED000771F881F991F1A9469F7609570958095E0
:102EE00090959B01AC01BD01CF010895EE0FFF1F2E
:102EF0000590F491E02D19940790F691E02D199426
:042F0000F894FFCF73
:102F0400E703FF00000000000000050004002800A3
:102F14003000320034002E002C002A000D00030083
:102F2400020001000031078000660269026B027032
:102F340002760279027C02810287028F0297029D47
:102F440002A302A902AF02B502BE02CE02D702005A
:102F540000400014005400436F6E6669726D0043B4
:102F6400616E63656C0031320037004155544F0087
:102F74005354415254003333003738004C454654BF
:102F840000524947485400524F5420454E43005084
:102F9400524F4752414D004B4E4F4231004B4E4F22
:102FA4004232004B4E4F4233004B4E4F4234004BA3
:102FB4004E4F4235005377697463686573004973F3
:102FC4006F6C617465204368616E6E656C004E655C
:102FD4007720536F6E6700506F7765726F66660077
:102FE400497420776F726B732020202021002020E9
:102FF4002020000A002A0030002E0034002C003269
:10300400000400050000000000420BA709EE0A17A7
:103014000BFE0A370B000000003C0FA7090000005C
:10302400009310A70900000000B21385135A13621D
:0630340013751384130064
:00000001FF
